{
  "_format": "hh3-artifact-1",
  "contractName": "BTC",
  "sourceName": "contracts/BTC.sol",
  "abi": [
    {
      "inputs": [
        {
          "internalType": "uint256",
          "name": "initialSupply",
          "type": "uint256"
        }
      ],
      "stateMutability": "nonpayable",
      "type": "constructor"
    },
    {
      "inputs": [
        {
          "internalType": "address",
          "name": "spender",
          "type": "address"
        },
        {
          "internalType": "uint256",
          "name": "allowance",
          "type": "uint256"
        },
        {
          "internalType": "uint256",
          "name": "needed",
          "type": "uint256"
        }
      ],
      "name": "ERC20InsufficientAllowance",
      "type": "error"
    },
    {
      "inputs": [
        {
          "internalType": "address",
          "name": "sender",
          "type": "address"
        },
        {
          "internalType": "uint256",
          "name": "balance",
          "type": "uint256"
        },
        {
          "internalType": "uint256",
          "name": "needed",
          "type": "uint256"
        }
      ],
      "name": "ERC20InsufficientBalance",
      "type": "error"
    },
    {
      "inputs": [
        {
          "internalType": "address",
          "name": "approver",
          "type": "address"
        }
      ],
      "name": "ERC20InvalidApprover",
      "type": "error"
    },
    {
      "inputs": [
        {
          "internalType": "address",
          "name": "receiver",
          "type": "address"
        }
      ],
      "name": "ERC20InvalidReceiver",
      "type": "error"
    },
    {
      "inputs": [
        {
          "internalType": "address",
          "name": "sender",
          "type": "address"
        }
      ],
      "name": "ERC20InvalidSender",
      "type": "error"
    },
    {
      "inputs": [
        {
          "internalType": "address",
          "name": "spender",
          "type": "address"
        }
      ],
      "name": "ERC20InvalidSpender",
      "type": "error"
    },
    {
      "inputs": [
        {
          "internalType": "address",
          "name": "owner",
          "type": "address"
        }
      ],
      "name": "OwnableInvalidOwner",
      "type": "error"
    },
    {
      "inputs": [
        {
          "internalType": "address",
          "name": "account",
          "type": "address"
        }
      ],
      "name": "OwnableUnauthorizedAccount",
      "type": "error"
    },
    {
      "anonymous": false,
      "inputs": [
        {
          "indexed": true,
          "internalType": "address",
          "name": "owner",
          "type": "address"
        },
        {
          "indexed": true,
          "internalType": "address",
          "name": "spender",
          "type": "address"
        },
        {
          "indexed": false,
          "internalType": "uint256",
          "name": "value",
          "type": "uint256"
        }
      ],
      "name": "Approval",
      "type": "event"
    },
    {
      "anonymous": false,
      "inputs": [
        {
          "indexed": true,
          "internalType": "address",
          "name": "previousOwner",
          "type": "address"
        },
        {
          "indexed": true,
          "internalType": "address",
          "name": "newOwner",
          "type": "address"
        }
      ],
      "name": "OwnershipTransferred",
      "type": "event"
    },
    {
      "anonymous": false,
      "inputs": [
        {
          "indexed": true,
          "internalType": "address",
          "name": "from",
          "type": "address"
        },
        {
          "indexed": true,
          "internalType": "address",
          "name": "to",
          "type": "address"
        },
        {
          "indexed": false,
          "internalType": "uint256",
          "name": "value",
          "type": "uint256"
        }
      ],
      "name": "Transfer",
      "type": "event"
    },
    {
      "inputs": [
        {
          "internalType": "address",
          "name": "owner",
          "type": "address"
        },
        {
          "internalType": "address",
          "name": "spender",
          "type": "address"
        }
      ],
      "name": "allowance",
      "outputs": [
        {
          "internalType": "uint256",
          "name": "",
          "type": "uint256"
        }
      ],
      "stateMutability": "view",
      "type": "function"
    },
    {
      "inputs": [
        {
          "internalType": "address",
          "name": "spender",
          "type": "address"
        },
        {
          "internalType": "uint256",
          "name": "value",
          "type": "uint256"
        }
      ],
      "name": "approve",
      "outputs": [
        {
          "internalType": "bool",
          "name": "",
          "type": "bool"
        }
      ],
      "stateMutability": "nonpayable",
      "type": "function"
    },
    {
      "inputs": [
        {
          "internalType": "address",
          "name": "account",
          "type": "address"
        }
      ],
      "name": "balanceOf",
      "outputs": [
        {
          "internalType": "uint256",
          "name": "",
          "type": "uint256"
        }
      ],
      "stateMutability": "view",
      "type": "function"
    },
    {
      "inputs": [],
      "name": "decimals",
      "outputs": [
        {
          "internalType": "uint8",
          "name": "",
          "type": "uint8"
        }
      ],
      "stateMutability": "view",
      "type": "function"
    },
    {
      "inputs": [
        {
          "internalType": "address",
          "name": "to",
          "type": "address"
        },
        {
          "internalType": "uint256",
          "name": "amount",
          "type": "uint256"
        }
      ],
      "name": "mint",
      "outputs": [],
      "stateMutability": "nonpayable",
      "type": "function"
    },
    {
      "inputs": [],
      "name": "name",
      "outputs": [
        {
          "internalType": "string",
          "name": "",
          "type": "string"
        }
      ],
      "stateMutability": "view",
      "type": "function"
    },
    {
      "inputs": [],
      "name": "owner",
      "outputs": [
        {
          "internalType": "address",
          "name": "",
          "type": "address"
        }
      ],
      "stateMutability": "view",
      "type": "function"
    },
    {
      "inputs": [],
      "name": "renounceOwnership",
      "outputs": [],
      "stateMutability": "nonpayable",
      "type": "function"
    },
    {
      "inputs": [],
      "name": "symbol",
      "outputs": [
        {
          "internalType": "string",
          "name": "",
          "type": "string"
        }
      ],
      "stateMutability": "view",
      "type": "function"
    },
    {
      "inputs": [],
      "name": "totalSupply",
      "outputs": [
        {
          "internalType": "uint256",
          "name": "",
          "type": "uint256"
        }
      ],
      "stateMutability": "view",
      "type": "function"
    },
    {
      "inputs": [
        {
          "internalType": "address",
          "name": "to",
          "type": "address"
        },
        {
          "internalType": "uint256",
          "name": "value",
          "type": "uint256"
        }
      ],
      "name": "transfer",
      "outputs": [
        {
          "internalType": "bool",
          "name": "",
          "type": "bool"
        }
      ],
      "stateMutability": "nonpayable",
      "type": "function"
    },
    {
      "inputs": [
        {
          "internalType": "address",
          "name": "from",
          "type": "address"
        },
        {
          "internalType": "address",
          "name": "to",
          "type": "address"
        },
        {
          "internalType": "uint256",
          "name": "value",
          "type": "uint256"
        }
      ],
      "name": "transferFrom",
      "outputs": [
        {
          "internalType": "bool",
          "name": "",
          "type": "bool"
        }
      ],
      "stateMutability": "nonpayable",
      "type": "function"
    },
    {
      "inputs": [
        {
          "internalType": "address",
          "name": "newOwner",
          "type": "address"
        }
      ],
      "name": "transferOwnership",
      "outputs": [],
      "stateMutability": "nonpayable",
      "type": "function"
    }
  ],
  "bytecode": "0x608060405234801561000f575f5ffd5b50604051610eeb380380610eeb83398101604081905261002e91610296565b33604051806040016040528060078152602001662134ba31b7b4b760c91b8152506040518060400160405280600381526020016242544360e81b815250816003908161007a9190610345565b5060046100878282610345565b5050506001600160a01b0381166100b857604051631e4fbdf760e01b81525f60048201526024015b60405180910390fd5b6100c1816100e7565b506100e1336100d26012600a6104f8565b6100dc908461050d565b610138565b50610537565b600580546001600160a01b038381166001600160a01b0319831681179093556040519116919082907f8be0079c531659141344cd1fd0a4f28419497f9722a3daafe3b4186f6b6457e0905f90a35050565b6001600160a01b0382166101615760405163ec442f0560e01b81525f60048201526024016100af565b61016c5f8383610170565b5050565b6001600160a01b03831661019a578060025f82825461018f9190610524565b9091555061020a9050565b6001600160a01b0383165f90815260208190526040902054818110156101ec5760405163391434e360e21b81526001600160a01b038516600482015260248101829052604481018390526064016100af565b6001600160a01b0384165f9081526020819052604090209082900390555b6001600160a01b03821661022657600280548290039055610244565b6001600160a01b0382165f9081526020819052604090208054820190555b816001600160a01b0316836001600160a01b03167fddf252ad1be2c89b69c2b068fc378daa952ba7f163c4a11628f55a4df523b3ef8360405161028991815260200190565b60405180910390a3505050565b5f602082840312156102a6575f5ffd5b5051919050565b634e487b7160e01b5f52604160045260245ffd5b600181811c908216806102d557607f821691505b6020821081036102f357634e487b7160e01b5f52602260045260245ffd5b50919050565b601f82111561034057805f5260205f20601f840160051c8101602085101561031e5750805b601f840160051c820191505b8181101561033d575f815560010161032a565b50505b505050565b81516001600160401b0381111561035e5761035e6102ad565b6103728161036c84546102c1565b846102f9565b6020601f8211600181146103a4575f831561038d5750848201515b5f19600385901b1c1916600184901b17845561033d565b5f84815260208120601f198516915b828110156103d357878501518255602094850194600190920191016103b3565b50848210156103f057868401515f19600387901b60f8161c191681555b50505050600190811b01905550565b634e487b7160e01b5f52601160045260245ffd5b6001815b600184111561044e57808504811115610432576104326103ff565b600184161561044057908102905b60019390931c928002610417565b935093915050565b5f82610464575060016104f2565b8161047057505f6104f2565b81600181146104865760028114610490576104ac565b60019150506104f2565b60ff8411156104a1576104a16103ff565b50506001821b6104f2565b5060208310610133831016604e8410600b84101617156104cf575081810a6104f2565b6104db5f198484610413565b805f19048211156104ee576104ee6103ff565b0290505b92915050565b5f61050660ff841683610456565b9392505050565b80820281158282048414176104f2576104f26103ff565b808201808211156104f2576104f26103ff565b6109a7806105445f395ff3fe608060405234801561000f575f5ffd5b50600436106100cb575f3560e01c806370a082311161008857806395d89b411161006357806395d89b41146101a4578063a9059cbb146101ac578063dd62ed3e146101bf578063f2fde38b146101f7575f5ffd5b806370a0823114610159578063715018a6146101815780638da5cb5b14610189575f5ffd5b806306fdde03146100cf578063095ea7b3146100ed57806318160ddd1461011057806323b872dd14610122578063313ce5671461013557806340c10f1914610144575b5f5ffd5b6100d761020a565b6040516100e49190610707565b60405180910390f35b6101006100fb366004610757565b61029a565b60405190151581526020016100e4565b6002545b6040519081526020016100e4565b61010061013036600461077f565b6102b3565b604051601281526020016100e4565b610157610152366004610757565b6102d6565b005b6101146101673660046107b9565b6001600160a01b03165f9081526020819052604090205490565b610157610301565b6005546040516001600160a01b0390911681526020016100e4565b6100d7610314565b6101006101ba366004610757565b610323565b6101146101cd3660046107d9565b6001600160a01b039182165f90815260016020908152604080832093909416825291909152205490565b6101576102053660046107b9565b610330565b6060600380546102199061080a565b80601f01602080910402602001604051908101604052809291908181526020018280546102459061080a565b80156102905780601f1061026757610100808354040283529160200191610290565b820191905f5260205f20905b81548152906001019060200180831161027357829003601f168201915b5050505050905090565b5f336102a7818585610372565b60019150505b92915050565b5f336102c0858285610384565b6102cb858585610400565b506001949350505050565b6102de61045d565b6102fd826102ee6012600a610939565b6102f89084610947565b61048a565b5050565b61030961045d565b6103125f6104be565b565b6060600480546102199061080a565b5f336102a7818585610400565b61033861045d565b6001600160a01b03811661036657604051631e4fbdf760e01b81525f60048201526024015b60405180910390fd5b61036f816104be565b50565b61037f838383600161050f565b505050565b6001600160a01b038381165f908152600160209081526040808320938616835292905220545f198110156103fa57818110156103ec57604051637dc7a0d960e11b81526001600160a01b0384166004820152602481018290526044810183905260640161035d565b6103fa84848484035f61050f565b50505050565b6001600160a01b03831661042957604051634b637e8f60e11b81525f600482015260240161035d565b6001600160a01b0382166104525760405163ec442f0560e01b81525f600482015260240161035d565b61037f8383836105e1565b6005546001600160a01b031633146103125760405163118cdaa760e01b815233600482015260240161035d565b6001600160a01b0382166104b35760405163ec442f0560e01b81525f600482015260240161035d565b6102fd5f83836105e1565b600580546001600160a01b038381166001600160a01b0319831681179093556040519116919082907f8be0079c531659141344cd1fd0a4f28419497f9722a3daafe3b4186f6b6457e0905f90a35050565b6001600160a01b0384166105385760405163e602df0560e01b81525f600482015260240161035d565b6001600160a01b03831661056157604051634a1406b160e11b81525f600482015260240161035d565b6001600160a01b038085165f90815260016020908152604080832093871683529290522082905580156103fa57826001600160a01b0316846001600160a01b03167f8c5be1e5ebec7d5bd14f71427d1e84f3dd0314c0f7b2291e5b200ac8c7c3b925846040516105d391815260200190565b60405180910390a350505050565b6001600160a01b03831661060b578060025f828254610600919061095e565b9091555061067b9050565b6001600160a01b0383165f908152602081905260409020548181101561065d5760405163391434e360e21b81526001600160a01b0385166004820152602481018290526044810183905260640161035d565b6001600160a01b0384165f9081526020819052604090209082900390555b6001600160a01b038216610697576002805482900390556106b5565b6001600160a01b0382165f9081526020819052604090208054820190555b816001600160a01b0316836001600160a01b03167fddf252ad1be2c89b69c2b068fc378daa952ba7f163c4a11628f55a4df523b3ef836040516106fa91815260200190565b60405180910390a3505050565b602081525f82518060208401528060208501604085015e5f604082850101526040601f19601f83011684010191505092915050565b80356001600160a01b0381168114610752575f5ffd5b919050565b5f5f60408385031215610768575f5ffd5b6107718361073c565b946020939093013593505050565b5f5f5f60608486031215610791575f5ffd5b61079a8461073c565b92506107a86020850161073c565b929592945050506040919091013590565b5f602082840312156107c9575f5ffd5b6107d28261073c565b9392505050565b5f5f604083850312156107ea575f5ffd5b6107f38361073c565b91506108016020840161073c565b90509250929050565b600181811c9082168061081e57607f821691505b60208210810361083c57634e487b7160e01b5f52602260045260245ffd5b50919050565b634e487b7160e01b5f52601160045260245ffd5b6001815b60018411156108915780850481111561087557610875610842565b600184161561088357908102905b60019390931c92800261085a565b935093915050565b5f826108a7575060016102ad565b816108b357505f6102ad565b81600181146108c957600281146108d3576108ef565b60019150506102ad565b60ff8411156108e4576108e4610842565b50506001821b6102ad565b5060208310610133831016604e8410600b8410161715610912575081810a6102ad565b61091e5f198484610856565b805f190482111561093157610931610842565b029392505050565b5f6107d260ff841683610899565b80820281158282048414176102ad576102ad610842565b808201808211156102ad576102ad61084256fea2646970667358221220f9268758010a132f2ee9e2c3058ad347fe18294c6bc8a163e1999763bb20e36664736f6c634300081c0033",
  "linkReferences": {},
  "deployedLinkReferences": {},
  "immutableReferences": {},
  "inputSourceName": "project/contracts/BTC.sol",
  "buildInfoId": "solc-0_8_28-6687a8eef9f9f98272f158bb567c2dac7afe5cc1"
}